:020000040000FA
:10000000600200201D0300002503000027030000FC
:10001000290300002B0300002D0300000000000056
:100020000000000000000000000000002F0300009E
:10003000310300000000000033030000350300001E
:1000400037030000390300003B0300003D030000BC
:100050003F0300004103000043030000450300008C
:1000600047030000490300004B0300004D0300005C
:100070004F0300005103000053030000550300002C
:1000800057030000590300005B0300005D030000FC
:100090005F030000610300006303000065030000CC
:1000A00067030000690300006B0300006D0300009C
:1000B0006F0300007103000073030000750300006C
:1000C00077030000790300007B0300007D0300003C
:1000D0007F0300008103000083030000850300000C
:1000E0008703000089030000000000008B0300006C
:1000F0008D0300008F0300009103000093030000B4
:100100009503000097030000990300009B03000083
:1001100000000000000000009D0300009F0300009D
:10012000A1030000A3030000A5030000A703000033
:10013000A9030000AB030000AD030000AF03000003
:1001400000000000000000000000000000000000AF
:10015000B1030000B3030000B5030000B7030000C3
:10016000000000000000000000000000000000008F
:10017000000000000000000000000000000000007F
:10018000000000000000000000000000000000006F
:10019000000000000000000000000000000000005F
:1001A000000000000000000000000000000000004F
:1001B000B9030000BB030000BD030000BF03000043
:1001C000C1030000C3030000C5030000C703000013
:1001D000C9030000CB030000CD030000CF030000E3
:1001E000D1030000D3030000D5030000000000008D
:1001F00000000000D7030000D9030000DB0300006B
:10020000DD030000DF03000000000000000000002C
:10021000E1030000E3030000E5030000E703000042
:10022000E9030000EB030000ED030000EF03000012
:10023000F1030000F3030000F5030000F7030000E2
:10024000F9030000FB030000FD030000FF030000B2
:10025000010400000304000005040000070400007E
:10026000090400000B0400000D04000000F002F877
:1002700000F044F814A696E8000CB244B344DA4502
:1002800001D100F03BF8BAE80F000FA696E8300065
:10029000A5EB040504EB0607AAEB0704A7F1010789
:1002A0004FEA15154FEA3414A4F10104AC4201D30E
:1002B00000F024F813F0010F18BFFB1A43F00103FC
:1002C00000F001F8DBE71847040400001404000004
:1002D000704700000023002400250026103A28BFA4
:1002E00078C1FBD8520728BF30C148BF0B607047A8
:1002F0001FB500F0DDF91FBD10B510BD00F09BF873
:100300001146FFF7F5FF00F07DF900F0B9F803B4EE
:10031000FFF7F2FF03BC00F0C1F800003F48804740
:100320003F480047FEE7FEE7FEE7FEE7FEE7FEE7A1
:10033000FEE7FEE7FEE7FEE7FEE7FEE7FEE7FEE795
:10034000FEE7FEE7FEE7FEE7FEE7FEE7FEE7FEE785
:10035000FEE7FEE7FEE7FEE7FEE7FEE7FEE7FEE775
:10036000FEE7FEE7FEE7FEE7FEE7FEE7FEE7FEE765
:10037000FEE7FEE7FEE7FEE7FEE7FEE7FEE7FEE755
:10038000FEE7FEE7FEE7FEE7FEE7FEE7FEE7FEE745
:10039000FEE7FEE7FEE7FEE7FEE7FEE7FEE7FEE735
:1003A000FEE7FEE7FEE7FEE7FEE7FEE7FEE7FEE725
:1003B000FEE7FEE7FEE7FEE7FEE7FEE7FEE7FEE715
:1003C000FEE7FEE7FEE7FEE7FEE7FEE7FEE7FEE705
:1003D000FEE7FEE7FEE7FEE7FEE7FEE7FEE7FEE7F5
:1003E000FEE7FEE7FEE7FEE7FEE7FEE7FEE7FEE7E5
:1003F000FEE7FEE7FEE7FEE7FEE7FEE7FEE7FEE7D5
:10040000FEE7FEE7FEE7FEE7FEE7FEE7FEE70000A9
:1004100004480549034A054B70470000AD0400003D
:100420006D020000600000206002002060000020DB
:10043000704770477047754600F02CF8AE460500CF
:100440006946534620F00700854618B020B5FFF7EF
:10045000DFFFBDE820404FF000064FF000074FF0EF
:1004600000084FF0000BAC46ACE8C009ACE8C0098E
:10047000ACE8C009ACE8C00921F007018D4670471F
:1004800010B50446AFF300802046BDE81040FFF7EA
:100490003EBF0000004870470000002001491820BE
:1004A000ABBEFEE7260002007047000081B04EF6AA
:1004B0008851CEF20001086840F4700008604EF2E6
:1004C0007001C4F20F0142F61000C0F280700860A3
:1004D0004EF26002C4F20F0243F6D120C0F28E70D9
:1004E000106042F64250C0F29E10106042F60000CA
:1004F000C0F28010086000200090FFE70098C0085C
:100500007C2805D8FFE7FFE7009801300090F5E769
:100510004EF26001C4F20F0140F64250C0F29E104C
:1005200008604EF27001C4F20F0140F60000C0F204
:100530008010086000200090FFE70098C0087C2829
:1005400005D8FFE7FFE7009801300090F5E74EF28D
:100550006001C4F20F0140F64250C0F2DE100860A4
:10056000FFE74EF25000C4F20F00006800F04000B8
:10057000402801D0FFE7F4E74EF26001C4F20F011A
:1005800040F24250C0F2DE1008604EF27001C4F238
:100590000F014FF0C070086000200090FFE7009846
:1005A00042F20F71884205D8FFE7FFE7009801305B
:1005B0000090F4E701B0704782B0019000200090F5
:1005C000FFE700980199884204DAFFE700980130BC
:1005D0000090F6E702B0704780B584B002900298B0
:1005E00018B9FFE70120039009E002980190013853
:1005F000FFF7F2FF0146019848430390FFE7039895
:1006000004B080BD80B584B0002001900390FFF756
:10061000E3FF02900120FFF7DFFF00EB4000023014
:1006200002900520FFF7D8FF01984EF26C02C4F249
:100630000F02116841F0200111604EF20862C4F20D
:100640000F02116841F0200111604DF20042C4F226
:100650000502116841F00E0111604DF21C52C4F206
:100660000502116841F00E0111604DF23801C4F22B
:10067000050108604DF21001C4F205010420086074
:10068000FFE74DF20801C4F2050100910220086065
:1006900044F24020C0F20F00FFF78EFF00990020C7
:1006A00008604AF22010C0F20700FFF785FFE8E774
:1006B000F1EE100A4FF6FF71C0F2C03120EA0100DE
:1006C00040F04070E1EE100A70470000DC060000C8
:0C06D0000000002060020000D4020000C6
:040000050000026D88
:00000001FF
